{
  "_format": "hh-sol-artifact-1",
  "contractName": "testEvent",
  "sourceName": "contracts/testEvent.sol",
  "abi": [
    {
      "inputs": [],
      "stateMutability": "nonpayable",
      "type": "constructor"
    },
    {
      "anonymous": false,
      "inputs": [
        {
          "indexed": true,
          "internalType": "address",
          "name": "_from",
          "type": "address"
        },
        {
          "indexed": false,
          "internalType": "uint256",
          "name": "_value",
          "type": "uint256"
        }
      ],
      "name": "Deposit",
      "type": "event"
    },
    {
      "inputs": [
        {
          "internalType": "uint256",
          "name": "value",
          "type": "uint256"
        }
      ],
      "name": "deposit",
      "outputs": [],
      "stateMutability": "nonpayable",
      "type": "function"
    }
  ],
  "bytecode": "0x608060405234801561001057600080fd5b5061015c806100206000396000f3fe608060405234801561001057600080fd5b506004361061002b5760003560e01c8063b6b55f2514610030575b600080fd5b61004a600480360381019061004591906100b2565b61004c565b005b3373ffffffffffffffffffffffffffffffffffffffff167fe1fffcc4923d04b559f4d29a8bfc6cda04eb5b0d3c460751c2402c5c5cc9109c8260405161009291906100ea565b60405180910390a250565b6000813590506100ac8161010f565b92915050565b6000602082840312156100c457600080fd5b60006100d28482850161009d565b91505092915050565b6100e481610105565b82525050565b60006020820190506100ff60008301846100db565b92915050565b6000819050919050565b61011881610105565b811461012357600080fd5b5056fea2646970667358221220fa17287d71ac4056af42356dde8d4c9473cbba0a8743bfd2d35fcf78d1f47c4864736f6c63430008040033",
  "linkReferences": {},
  "deployedLinkReferences": {}
}