{
  "_format": "hh-sol-artifact-1",
  "contractName": "CallTest",
  "sourceName": "contracts/testCallTransfer.sol",
  "abi": [
    {
      "inputs": [],
      "stateMutability": "payable",
      "type": "constructor"
    },
    {
      "inputs": [
        {
          "internalType": "address",
          "name": "addr",
          "type": "address"
        }
      ],
      "name": "saveTransferEth",
      "outputs": [],
      "stateMutability": "nonpayable",
      "type": "function"
    },
    {
      "inputs": [
        {
          "internalType": "address",
          "name": "towho",
          "type": "address"
        }
      ],
      "name": "transferEther",
      "outputs": [
        {
          "internalType": "bool",
          "name": "",
          "type": "bool"
        }
      ],
      "stateMutability": "nonpayable",
      "type": "function"
    }
  ],
  "bytecode": "0x6080604052610435806100136000396000f3fe608060405234801561001057600080fd5b50600436106100365760003560e01c8063417d9cb41461003b5780636b55e99114610057575b600080fd5b61005560048036038101906100509190610223565b610087565b005b610071600480360381019061006c9190610223565b6101b4565b60405161007e91906102c6565b60405180910390f35b60008173ffffffffffffffffffffffffffffffffffffffff16670de0b6b3a7640000600067ffffffffffffffff8111156100ea577f4e487b7100000000000000000000000000000000000000000000000000000000600052604160045260246000fd5b6040519080825280601f01601f19166020018201604052801561011c5781602001600182028036833780820191505090505b5060405161012a91906102af565b60006040518083038185875af1925050503d8060008114610167576040519150601f19603f3d011682016040523d82523d6000602084013e61016c565b606091505b50509050806101b0576040517f08c379a00000000000000000000000000000000000000000000000000000000081526004016101a7906102e1565b60405180910390fd5b5050565b60008173ffffffffffffffffffffffffffffffffffffffff166108fc670de0b6b3a76400009081150290604051600060405180830381858888f19350505050158015610204573d6000803e3d6000fd5b5060019050919050565b60008135905061021d816103e8565b92915050565b60006020828403121561023557600080fd5b60006102438482850161020e565b91505092915050565b6102558161033a565b82525050565b600061026682610301565b610270818561030c565b9350610280818560208601610366565b80840191505092915050565b6000610299602483610317565b91506102a482610399565b604082019050919050565b60006102bb828461025b565b915081905092915050565b60006020820190506102db600083018461024c565b92915050565b600060208201905081810360008301526102fa8161028c565b9050919050565b600081519050919050565b600081905092915050565b600082825260208201905092915050565b600061033382610346565b9050919050565b60008115159050919050565b600073ffffffffffffffffffffffffffffffffffffffff82169050919050565b60005b83811015610384578082015181840152602081019050610369565b83811115610393576000848401525b50505050565b7f736166655472616e736665724554483a20455448207472616e7366657220666160008201527f696c656400000000000000000000000000000000000000000000000000000000602082015250565b6103f181610328565b81146103fc57600080fd5b5056fea2646970667358221220ccbce5a421feac08425cf7c29b9adadc0672e30adbb4d490fbbf6af4d6e7df1b64736f6c63430008040033",
  "linkReferences": {},
  "deployedLinkReferences": {}
}