{
  "_format": "hh-sol-artifact-1",
  "contractName": "MyContract",
  "sourceName": "contracts/testInterface.sol",
  "abi": [
    {
      "inputs": [
        {
          "internalType": "address",
          "name": "_counter",
          "type": "address"
        }
      ],
      "name": "getCount",
      "outputs": [
        {
          "internalType": "uint256",
          "name": "",
          "type": "uint256"
        }
      ],
      "stateMutability": "view",
      "type": "function"
    },
    {
      "inputs": [
        {
          "internalType": "address",
          "name": "_counter",
          "type": "address"
        }
      ],
      "name": "incrementCounter",
      "outputs": [],
      "stateMutability": "nonpayable",
      "type": "function"
    }
  ],
  "bytecode": "0x608060405234801561001057600080fd5b506102b7806100206000396000f3fe608060405234801561001057600080fd5b50600436106100365760003560e01c80634f0cd27b1461003b578063e5910ae71461006b575b600080fd5b6100556004803603810190610050919061019b565b610087565b60405161006291906101fc565b60405180910390f35b6100856004803603810190610080919061019b565b61010e565b005b60008173ffffffffffffffffffffffffffffffffffffffff166306661abd6040518163ffffffff1660e01b815260040160206040518083038186803b1580156100cf57600080fd5b505afa1580156100e3573d6000803e3d6000fd5b505050506040513d601f19601f8201168201806040525081019061010791906101c4565b9050919050565b8073ffffffffffffffffffffffffffffffffffffffff1663d09de08a6040518163ffffffff1660e01b8152600401600060405180830381600087803b15801561015657600080fd5b505af115801561016a573d6000803e3d6000fd5b5050505050565b60008135905061018081610253565b92915050565b6000815190506101958161026a565b92915050565b6000602082840312156101ad57600080fd5b60006101bb84828501610171565b91505092915050565b6000602082840312156101d657600080fd5b60006101e484828501610186565b91505092915050565b6101f681610249565b82525050565b600060208201905061021160008301846101ed565b92915050565b600061022282610229565b9050919050565b600073ffffffffffffffffffffffffffffffffffffffff82169050919050565b6000819050919050565b61025c81610217565b811461026757600080fd5b50565b61027381610249565b811461027e57600080fd5b5056fea26469706673582212202a5d9f1b528d11bfef05651cfa87f37fcf65ebc15ac5d60328e69fd3de1e1ee764736f6c63430008040033",
  "linkReferences": {},
  "deployedLinkReferences": {}
}