{
  "_format": "hh-sol-artifact-1",
  "contractName": "testError",
  "sourceName": "contracts/testError.sol",
  "abi": [
    {
      "inputs": [],
      "stateMutability": "nonpayable",
      "type": "constructor"
    },
    {
      "inputs": [],
      "name": "NotOwner",
      "type": "error"
    },
    {
      "inputs": [],
      "name": "doSomething",
      "outputs": [],
      "stateMutability": "nonpayable",
      "type": "function"
    }
  ],
  "bytecode": "0x608060405234801561001057600080fd5b50336000806101000a81548173ffffffffffffffffffffffffffffffffffffffff021916908373ffffffffffffffffffffffffffffffffffffffff16021790555060f18061005f6000396000f3fe6080604052348015600f57600080fd5b506004361060285760003560e01c80638269267914602d575b600080fd5b60336035565b005b60008054906101000a900473ffffffffffffffffffffffffffffffffffffffff1673ffffffffffffffffffffffffffffffffffffffff163373ffffffffffffffffffffffffffffffffffffffff161460b9576040517f30cd747100000000000000000000000000000000000000000000000000000000815260040160405180910390fd5b56fea2646970667358221220671e922e102c1aeef93ae15b95cbbecf8acfe3521b60b5959d29dbae70bc7e3064736f6c63430008040033",
  "linkReferences": {},
  "deployedLinkReferences": {}
}