{
  "_format": "hh-sol-artifact-1",
  "contractName": "Foo",
  "sourceName": "contracts/trycatch.sol",
  "abi": [
    {
      "inputs": [],
      "name": "nonZero",
      "type": "error"
    },
    {
      "inputs": [
        {
          "internalType": "uint256",
          "name": "x",
          "type": "uint256"
        }
      ],
      "name": "myFunc",
      "outputs": [
        {
          "internalType": "uint256",
          "name": "",
          "type": "uint256"
        }
      ],
      "stateMutability": "pure",
      "type": "function"
    }
  ],
  "bytecode": "0x608060405234801561001057600080fd5b506101f4806100206000396000f3fe608060405234801561001057600080fd5b506004361061002b5760003560e01c8063a9bf563314610030575b600080fd5b61004a600480360381019061004591906100c5565b610060565b60405161005791906100fd565b60405180910390f35b60008082141561009c576040517f668b96bf00000000000000000000000000000000000000000000000000000000815260040160405180910390fd5b6001826100a99190610118565b9050919050565b6000813590506100bf816101a7565b92915050565b6000602082840312156100d757600080fd5b60006100e5848285016100b0565b91505092915050565b6100f78161016e565b82525050565b600060208201905061011260008301846100ee565b92915050565b60006101238261016e565b915061012e8361016e565b9250827fffffffffffffffffffffffffffffffffffffffffffffffffffffffffffffffff0382111561016357610162610178565b5b828201905092915050565b6000819050919050565b7f4e487b7100000000000000000000000000000000000000000000000000000000600052601160045260246000fd5b6101b08161016e565b81146101bb57600080fd5b5056fea264697066735822122053060703fc4bdf9b1de74f3be2a8cff1131870a945e47df4d2942b44312f665264736f6c63430008040033",
  "linkReferences": {},
  "deployedLinkReferences": {}
}