{
  "_format": "hh-sol-artifact-1",
  "contractName": "trycatch",
  "sourceName": "contracts/trycatch.sol",
  "abi": [
    {
      "inputs": [],
      "stateMutability": "nonpayable",
      "type": "constructor"
    },
    {
      "inputs": [],
      "name": "errBytes",
      "outputs": [
        {
          "internalType": "bytes",
          "name": "",
          "type": "bytes"
        }
      ],
      "stateMutability": "view",
      "type": "function"
    },
    {
      "inputs": [],
      "name": "errMsg",
      "outputs": [
        {
          "internalType": "string",
          "name": "",
          "type": "string"
        }
      ],
      "stateMutability": "view",
      "type": "function"
    },
    {
      "inputs": [],
      "name": "foo",
      "outputs": [
        {
          "internalType": "contract Foo",
          "name": "",
          "type": "address"
        }
      ],
      "stateMutability": "view",
      "type": "function"
    },
    {
      "inputs": [
        {
          "internalType": "uint256",
          "name": "_i",
          "type": "uint256"
        }
      ],
      "name": "tryCatchExternalCall",
      "outputs": [],
      "stateMutability": "nonpayable",
      "type": "function"
    },
    {
      "inputs": [],
      "name": "y",
      "outputs": [
        {
          "internalType": "uint256",
          "name": "",
          "type": "uint256"
        }
      ],
      "stateMutability": "view",
      "type": "function"
    }
  ],
  "bytecode": "0x608060405234801561001057600080fd5b5060405161001d9061007e565b604051809103906000f080158015610039573d6000803e3d6000fd5b506000806101000a81548173ffffffffffffffffffffffffffffffffffffffff021916908373ffffffffffffffffffffffffffffffffffffffff16021790555061008b565b6102148061096f83390190565b6108d58061009a6000396000f3fe608060405234801561001057600080fd5b50600436106100575760003560e01c8063437a19951461005c578063933ac0841461007a578063a56dfe4a14610096578063c2985578146100b4578063f688a492146100d2575b600080fd5b6100646100f0565b60405161007191906105f1565b60405180910390f35b610094600480360381019061008f91906104d2565b61017e565b005b61009e6102c7565b6040516100ab9190610613565b60405180910390f35b6100bc6102cd565b6040516100c991906105d6565b60405180910390f35b6100da6102f1565b6040516100e791906105b4565b60405180910390f35b600280546100fd906106f1565b80601f0160208091040260200160405190810160405280929190818152602001828054610129906106f1565b80156101765780601f1061014b57610100808354040283529160200191610176565b820191906000526020600020905b81548152906001019060200180831161015957829003601f168201915b505050505081565b60008054906101000a900473ffffffffffffffffffffffffffffffffffffffff1673ffffffffffffffffffffffffffffffffffffffff1663a9bf5633826040518263ffffffff1660e01b81526004016101d79190610613565b60206040518083038186803b1580156101ef57600080fd5b505afa92505050801561022057506040513d601f19601f8201168201806040525081019061021d91906104fb565b60015b6102bb5761022c6107b2565b806308c379a0141561026957506102416107f2565b8061024c575061026b565b806002908051906020019061026292919061037f565b50506102b6565b505b3d8060008114610297576040519150601f19603f3d011682016040523d82523d6000602084013e61029c565b606091505b5080600390805190602001906102b3929190610405565b50505b6102c4565b80600181905550505b50565b60015481565b60008054906101000a900473ffffffffffffffffffffffffffffffffffffffff1681565b600380546102fe906106f1565b80601f016020809104026020016040519081016040528092919081815260200182805461032a906106f1565b80156103775780601f1061034c57610100808354040283529160200191610377565b820191906000526020600020905b81548152906001019060200180831161035a57829003601f168201915b505050505081565b82805461038b906106f1565b90600052602060002090601f0160209004810192826103ad57600085556103f4565b82601f106103c657805160ff19168380011785556103f4565b828001600101855582156103f4579182015b828111156103f35782518255916020019190600101906103d8565b5b509050610401919061048b565b5090565b828054610411906106f1565b90600052602060002090601f016020900481019282610433576000855561047a565b82601f1061044c57805160ff191683800117855561047a565b8280016001018555821561047a579182015b8281111561047957825182559160200191906001019061045e565b5b509050610487919061048b565b5090565b5b808211156104a457600081600090555060010161048c565b5090565b6000813590506104b781610888565b92915050565b6000815190506104cc81610888565b92915050565b6000602082840312156104e457600080fd5b60006104f2848285016104a8565b91505092915050565b60006020828403121561050d57600080fd5b600061051b848285016104bd565b91505092915050565b600061052f82610638565b610539818561064e565b93506105498185602086016106be565b610552816107d4565b840191505092915050565b6105668161069a565b82525050565b600061057782610643565b610581818561065f565b93506105918185602086016106be565b61059a816107d4565b840191505092915050565b6105ae81610690565b82525050565b600060208201905081810360008301526105ce8184610524565b905092915050565b60006020820190506105eb600083018461055d565b92915050565b6000602082019050818103600083015261060b818461056c565b905092915050565b600060208201905061062860008301846105a5565b92915050565b6000604051905090565b600081519050919050565b600081519050919050565b600082825260208201905092915050565b600082825260208201905092915050565b600073ffffffffffffffffffffffffffffffffffffffff82169050919050565b6000819050919050565b60006106a5826106ac565b9050919050565b60006106b782610670565b9050919050565b60005b838110156106dc5780820151818401526020810190506106c1565b838111156106eb576000848401525b50505050565b6000600282049050600182168061070957607f821691505b6020821081141561071d5761071c610754565b5b50919050565b61072c826107d4565b810181811067ffffffffffffffff8211171561074b5761074a610783565b5b80604052505050565b7f4e487b7100000000000000000000000000000000000000000000000000000000600052602260045260246000fd5b7f4e487b7100000000000000000000000000000000000000000000000000000000600052604160045260246000fd5b600060033d11156107d15760046000803e6107ce6000516107e5565b90505b90565b6000601f19601f8301169050919050565b60008160e01c9050919050565b600060443d101561080257610885565b61080a61062e565b60043d036004823e80513d602482011167ffffffffffffffff82111715610832575050610885565b808201805167ffffffffffffffff8111156108505750505050610885565b80602083010160043d03850181111561086d575050505050610885565b61087c82602001850186610723565b82955050505050505b90565b61089181610690565b811461089c57600080fd5b5056fea2646970667358221220f40dffba0c4334800aea4d65b45d068b4e785112bb99359b5297ee17cdbf499664736f6c63430008040033608060405234801561001057600080fd5b506101f4806100206000396000f3fe608060405234801561001057600080fd5b506004361061002b5760003560e01c8063a9bf563314610030575b600080fd5b61004a600480360381019061004591906100c5565b610060565b60405161005791906100fd565b60405180910390f35b60008082141561009c576040517f668b96bf00000000000000000000000000000000000000000000000000000000815260040160405180910390fd5b6001826100a99190610118565b9050919050565b6000813590506100bf816101a7565b92915050565b6000602082840312156100d757600080fd5b60006100e5848285016100b0565b91505092915050565b6100f78161016e565b82525050565b600060208201905061011260008301846100ee565b92915050565b60006101238261016e565b915061012e8361016e565b9250827fffffffffffffffffffffffffffffffffffffffffffffffffffffffffffffffff0382111561016357610162610178565b5b828201905092915050565b6000819050919050565b7f4e487b7100000000000000000000000000000000000000000000000000000000600052601160045260246000fd5b6101b08161016e565b81146101bb57600080fd5b5056fea264697066735822122053060703fc4bdf9b1de74f3be2a8cff1131870a945e47df4d2942b44312f665264736f6c63430008040033",
  "linkReferences": {},
  "deployedLinkReferences": {}
}