{
  "_format": "hh-sol-artifact-1",
  "contractName": "testPayable",
  "sourceName": "contracts/testPayable.sol",
  "abi": [
    {
      "inputs": [],
      "stateMutability": "payable",
      "type": "constructor"
    },
    {
      "stateMutability": "payable",
      "type": "fallback"
    },
    {
      "inputs": [],
      "name": "deposit",
      "outputs": [],
      "stateMutability": "payable",
      "type": "function"
    },
    {
      "inputs": [
        {
          "internalType": "address",
          "name": "",
          "type": "address"
        }
      ],
      "name": "deposits",
      "outputs": [
        {
          "internalType": "uint256",
          "name": "",
          "type": "uint256"
        }
      ],
      "stateMutability": "view",
      "type": "function"
    },
    {
      "inputs": [],
      "name": "notDeposit",
      "outputs": [],
      "stateMutability": "nonpayable",
      "type": "function"
    },
    {
      "inputs": [],
      "name": "owner",
      "outputs": [
        {
          "internalType": "address payable",
          "name": "",
          "type": "address"
        }
      ],
      "stateMutability": "view",
      "type": "function"
    },
    {
      "inputs": [],
      "name": "withdraw",
      "outputs": [],
      "stateMutability": "nonpayable",
      "type": "function"
    },
    {
      "inputs": [],
      "name": "withdrawAll",
      "outputs": [],
      "stateMutability": "nonpayable",
      "type": "function"
    },
    {
      "stateMutability": "payable",
      "type": "receive"
    }
  ],
  "bytecode": "0x6080604052336000806101000a81548173ffffffffffffffffffffffffffffffffffffffff021916908373ffffffffffffffffffffffffffffffffffffffff1602179055506106f3806100536000396000f3fe6080604052600436106100595760003560e01c80633ccfd60b14610128578063853828b61461013f5780638da5cb5b14610156578063a248d51814610181578063d0e30db014610198578063fc7e286d146101a2576100b6565b366100b65734600160003373ffffffffffffffffffffffffffffffffffffffff1673ffffffffffffffffffffffffffffffffffffffff16815260200190815260200160002060008282546100ad91906105a7565b92505081905550005b34600160003373ffffffffffffffffffffffffffffffffffffffff1673ffffffffffffffffffffffffffffffffffffffff168152602001908152602001600020600082825461010591906105a7565b9250508190555060016002600082825461011f91906105a7565b92505081905550005b34801561013457600080fd5b5061013d6101df565b005b34801561014b57600080fd5b50610154610312565b005b34801561016257600080fd5b5061016b6103e8565b6040516101789190610535565b60405180910390f35b34801561018d57600080fd5b5061019661040c565b005b6101a061040e565b005b3480156101ae57600080fd5b506101c960048036038101906101c49190610493565b610466565b6040516101d69190610570565b60405180910390f35b60003373ffffffffffffffffffffffffffffffffffffffff16600160003373ffffffffffffffffffffffffffffffffffffffff1673ffffffffffffffffffffffffffffffffffffffff1681526020019081526020016000205460405161024490610520565b60006040518083038185875af1925050503d8060008114610281576040519150601f19603f3d011682016040523d82523d6000602084013e610286565b606091505b505090506000600160003373ffffffffffffffffffffffffffffffffffffffff1673ffffffffffffffffffffffffffffffffffffffff168152602001908152602001600020819055508061030f576040517f08c379a000000000000000000000000000000000000000000000000000000000815260040161030690610550565b60405180910390fd5b50565b600047905060008060009054906101000a900473ffffffffffffffffffffffffffffffffffffffff1673ffffffffffffffffffffffffffffffffffffffff168260405161035e90610520565b60006040518083038185875af1925050503d806000811461039b576040519150601f19603f3d011682016040523d82523d6000602084013e6103a0565b606091505b50509050806103e4576040517f08c379a00000000000000000000000000000000000000000000000000000000081526004016103db90610550565b60405180910390fd5b5050565b60008054906101000a900473ffffffffffffffffffffffffffffffffffffffff1681565b565b34600160003373ffffffffffffffffffffffffffffffffffffffff1673ffffffffffffffffffffffffffffffffffffffff168152602001908152602001600020600082825461045d91906105a7565b92505081905550565b60016020528060005260406000206000915090505481565b60008135905061048d816106a6565b92915050565b6000602082840312156104a557600080fd5b60006104b38482850161047e565b91505092915050565b6104c58161060f565b82525050565b60006104d8601483610596565b91506104e38261067a565b602082019050919050565b60006104fb60008361058b565b9150610506826106a3565b600082019050919050565b61051a81610641565b82525050565b600061052b826104ee565b9150819050919050565b600060208201905061054a60008301846104bc565b92915050565b60006020820190508181036000830152610569816104cb565b9050919050565b60006020820190506105856000830184610511565b92915050565b600081905092915050565b600082825260208201905092915050565b60006105b282610641565b91506105bd83610641565b9250827fffffffffffffffffffffffffffffffffffffffffffffffffffffffffffffffff038211156105f2576105f161064b565b5b828201905092915050565b600061060882610621565b9050919050565b600061061a82610621565b9050919050565b600073ffffffffffffffffffffffffffffffffffffffff82169050919050565b6000819050919050565b7f4e487b7100000000000000000000000000000000000000000000000000000000600052601160045260246000fd5b7f4661696c656420746f2073656e64204574686572000000000000000000000000600082015250565b50565b6106af816105fd565b81146106ba57600080fd5b5056fea2646970667358221220a3f0d7adf5ed4d265a25f5d530aa8b04a2185b0d226f644e9b1ee9e0d4413b1764736f6c63430008040033",
  "linkReferences": {},
  "deployedLinkReferences": {}
}