{
  "_format": "hh-sol-artifact-1",
  "contractName": "testStruct",
  "sourceName": "contracts/testStruct.sol",
  "abi": [
    {
      "inputs": [
        {
          "internalType": "uint256",
          "name": "id",
          "type": "uint256"
        }
      ],
      "name": "contribute",
      "outputs": [],
      "stateMutability": "payable",
      "type": "function"
    },
    {
      "inputs": [
        {
          "internalType": "uint256",
          "name": "id",
          "type": "uint256"
        }
      ],
      "name": "getFund",
      "outputs": [
        {
          "internalType": "address",
          "name": "",
          "type": "address"
        },
        {
          "internalType": "uint256",
          "name": "",
          "type": "uint256"
        }
      ],
      "stateMutability": "view",
      "type": "function"
    },
    {
      "inputs": [
        {
          "internalType": "uint256",
          "name": "id",
          "type": "uint256"
        }
      ],
      "name": "modifyFunder",
      "outputs": [],
      "stateMutability": "nonpayable",
      "type": "function"
    }
  ],
  "bytecode": "0x608060405234801561001057600080fd5b506103ae806100206000396000f3fe6080604052600436106100345760003560e01c806352c8df6414610039578063c1cbbca714610077578063d13186af14610093575b600080fd5b34801561004557600080fd5b50610060600480360381019061005b91906102b5565b6100bc565b60405161006e9291906102fc565b60405180910390f35b610091600480360381019061008c91906102b5565b610114565b005b34801561009f57600080fd5b506100ba60048036038101906100b591906102b5565b610239565b005b60008060008084815260200190815260200160002060000160009054906101000a900473ffffffffffffffffffffffffffffffffffffffff166000808581526020019081526020016000206001015491509150915091565b60405180604001604052803373ffffffffffffffffffffffffffffffffffffffff1681526020013481525060008083815260200190815260200160002060008201518160000160006101000a81548173ffffffffffffffffffffffffffffffffffffffff021916908373ffffffffffffffffffffffffffffffffffffffff1602179055506020820151816001015590505060405180604001604052803373ffffffffffffffffffffffffffffffffffffffff1681526020013481525060008083815260200190815260200160002060008201518160000160006101000a81548173ffffffffffffffffffffffffffffffffffffffff021916908373ffffffffffffffffffffffffffffffffffffffff1602179055506020820151816001015590505050565b60008060008381526020019081526020016000209050338160000160006101000a81548173ffffffffffffffffffffffffffffffffffffffff021916908373ffffffffffffffffffffffffffffffffffffffff160217905550600181600101819055505050565b6000813590506102af81610361565b92915050565b6000602082840312156102c757600080fd5b60006102d5848285016102a0565b91505092915050565b6102e781610325565b82525050565b6102f681610357565b82525050565b600060408201905061031160008301856102de565b61031e60208301846102ed565b9392505050565b600061033082610337565b9050919050565b600073ffffffffffffffffffffffffffffffffffffffff82169050919050565b6000819050919050565b61036a81610357565b811461037557600080fd5b5056fea264697066735822122096f364b8f6e47f623cbb47b47837803883bc58ed8fdeeac69ade252368c1088364736f6c63430008040033",
  "linkReferences": {},
  "deployedLinkReferences": {}
}