{
  "_format": "hh-sol-artifact-1",
  "contractName": "Avaiable",
  "sourceName": "contracts/testAvailable.sol",
  "abi": [
    {
      "inputs": [
        {
          "internalType": "uint256",
          "name": "a",
          "type": "uint256"
        }
      ],
      "name": "cal",
      "outputs": [
        {
          "internalType": "uint256",
          "name": "b",
          "type": "uint256"
        }
      ],
      "stateMutability": "pure",
      "type": "function"
    },
    {
      "inputs": [],
      "name": "data",
      "outputs": [
        {
          "internalType": "uint256",
          "name": "",
          "type": "uint256"
        }
      ],
      "stateMutability": "view",
      "type": "function"
    }
  ],
  "bytecode": "0x608060405234801561001057600080fd5b506101e9806100206000396000f3fe608060405234801561001057600080fd5b50600436106100365760003560e01c80632a83d2ac1461003b57806373d4a13a1461006b575b600080fd5b610055600480360381019061005091906100ba565b610089565b60405161006291906100f2565b60405180910390f35b61007361009f565b60405161008091906100f2565b60405180910390f35b6000600182610098919061010d565b9050919050565b60005481565b6000813590506100b48161019c565b92915050565b6000602082840312156100cc57600080fd5b60006100da848285016100a5565b91505092915050565b6100ec81610163565b82525050565b600060208201905061010760008301846100e3565b92915050565b600061011882610163565b915061012383610163565b9250827fffffffffffffffffffffffffffffffffffffffffffffffffffffffffffffffff038211156101585761015761016d565b5b828201905092915050565b6000819050919050565b7f4e487b7100000000000000000000000000000000000000000000000000000000600052601160045260246000fd5b6101a581610163565b81146101b057600080fd5b5056fea26469706673582212204743d9e7ec3064d6c7397ad78b91a8d90d3db3eea87219e7bdeaf2f8ffba62fe64736f6c63430008040033",
  "linkReferences": {},
  "deployedLinkReferences": {}
}