{
  "_format": "hh-sol-artifact-1",
  "contractName": "testOverflow",
  "sourceName": "contracts/testOverflow.sol",
  "abi": [
    {
      "inputs": [],
      "name": "add1",
      "outputs": [
        {
          "internalType": "uint8",
          "name": "",
          "type": "uint8"
        }
      ],
      "stateMutability": "pure",
      "type": "function"
    },
    {
      "inputs": [],
      "name": "add2",
      "outputs": [
        {
          "internalType": "uint8",
          "name": "",
          "type": "uint8"
        }
      ],
      "stateMutability": "pure",
      "type": "function"
    },
    {
      "inputs": [],
      "name": "sub1",
      "outputs": [
        {
          "internalType": "uint8",
          "name": "",
          "type": "uint8"
        }
      ],
      "stateMutability": "pure",
      "type": "function"
    }
  ],
  "bytecode": "0x608060405234801561001057600080fd5b50610247806100206000396000f3fe608060405234801561001057600080fd5b50600436106100405760003560e01c806235921a146100455780636c1f222f1461006357806372a099b714610081575b600080fd5b61004d61009f565b60405161005a9190610114565b60405180910390f35b61006b6100bf565b6040516100789190610114565b60405180910390f35b6100896100e5565b6040516100969190610114565b60405180910390f35b6000806080905060006002826100b59190610166565b9050809250505090565b60008060f09050600060109050600081836100da919061012f565b905080935050505090565b6000806001905060006002826100fb91906101a1565b9050809250505090565b61010e816101d5565b82525050565b60006020820190506101296000830184610105565b92915050565b600061013a826101d5565b9150610145836101d5565b92508260ff0382111561015b5761015a6101e2565b5b828201905092915050565b6000610171826101d5565b915061017c836101d5565b92508160ff0483118215151615610196576101956101e2565b5b828202905092915050565b60006101ac826101d5565b91506101b7836101d5565b9250828210156101ca576101c96101e2565b5b828203905092915050565b600060ff82169050919050565b7f4e487b7100000000000000000000000000000000000000000000000000000000600052601160045260246000fdfea26469706673582212207b310eb81333ea736c89ba97be657e158583e50733fd6b62b65262ee8ea90d0564736f6c63430008040033",
  "linkReferences": {},
  "deployedLinkReferences": {}
}