{
  "_format": "hh-sol-artifact-1",
  "contractName": "B",
  "sourceName": "contracts/testAbstract.sol",
  "abi": [
    {
      "inputs": [],
      "stateMutability": "nonpayable",
      "type": "constructor"
    },
    {
      "inputs": [],
      "name": "a",
      "outputs": [
        {
          "internalType": "uint256",
          "name": "",
          "type": "uint256"
        }
      ],
      "stateMutability": "view",
      "type": "function"
    },
    {
      "inputs": [
        {
          "internalType": "uint256",
          "name": "x",
          "type": "uint256"
        }
      ],
      "name": "add",
      "outputs": [],
      "stateMutability": "nonpayable",
      "type": "function"
    },
    {
      "inputs": [],
      "name": "b",
      "outputs": [
        {
          "internalType": "uint256",
          "name": "",
          "type": "uint256"
        }
      ],
      "stateMutability": "view",
      "type": "function"
    }
  ],
  "bytecode": "0x608060405234801561001057600080fd5b50600260018190555061020a806100286000396000f3fe608060405234801561001057600080fd5b50600436106100415760003560e01c80630dbe671f146100465780631003e2d2146100645780634df7e3d014610080575b600080fd5b61004e61009e565b60405161005b9190610113565b60405180910390f35b61007e600480360381019061007991906100db565b6100a4565b005b6100886100c0565b6040516100959190610113565b60405180910390f35b60005481565b80600160008282546100b6919061012e565b9250508190555050565b60015481565b6000813590506100d5816101bd565b92915050565b6000602082840312156100ed57600080fd5b60006100fb848285016100c6565b91505092915050565b61010d81610184565b82525050565b60006020820190506101286000830184610104565b92915050565b600061013982610184565b915061014483610184565b9250827fffffffffffffffffffffffffffffffffffffffffffffffffffffffffffffffff038211156101795761017861018e565b5b828201905092915050565b6000819050919050565b7f4e487b7100000000000000000000000000000000000000000000000000000000600052601160045260246000fd5b6101c681610184565b81146101d157600080fd5b5056fea2646970667358221220ede96f954d975c49cd84f6279104c3e0ea4c778ecc8987d3ea2c34a849cb5a1764736f6c63430008040033",
  "linkReferences": {},
  "deployedLinkReferences": {}
}