{
  "_format": "hh-sol-artifact-1",
  "contractName": "testArray",
  "sourceName": "contracts/testArray.sol",
  "abi": [
    {
      "inputs": [
        {
          "internalType": "uint256",
          "name": "x",
          "type": "uint256"
        }
      ],
      "name": "add",
      "outputs": [],
      "stateMutability": "nonpayable",
      "type": "function"
    },
    {
      "inputs": [
        {
          "internalType": "uint256[]",
          "name": "arrs",
          "type": "uint256[]"
        }
      ],
      "name": "copy",
      "outputs": [
        {
          "internalType": "uint256",
          "name": "len",
          "type": "uint256"
        }
      ],
      "stateMutability": "nonpayable",
      "type": "function"
    },
    {
      "inputs": [],
      "name": "dosome",
      "outputs": [],
      "stateMutability": "nonpayable",
      "type": "function"
    },
    {
      "inputs": [
        {
          "internalType": "uint256",
          "name": "x",
          "type": "uint256"
        }
      ],
      "name": "modifyOnTens",
      "outputs": [],
      "stateMutability": "nonpayable",
      "type": "function"
    },
    {
      "inputs": [],
      "name": "modityNumbers",
      "outputs": [],
      "stateMutability": "nonpayable",
      "type": "function"
    },
    {
      "inputs": [
        {
          "internalType": "uint256",
          "name": "",
          "type": "uint256"
        }
      ],
      "name": "numbers",
      "outputs": [
        {
          "internalType": "uint256",
          "name": "",
          "type": "uint256"
        }
      ],
      "stateMutability": "view",
      "type": "function"
    },
    {
      "inputs": [
        {
          "internalType": "uint256",
          "name": "index",
          "type": "uint256"
        }
      ],
      "name": "remove",
      "outputs": [],
      "stateMutability": "nonpayable",
      "type": "function"
    },
    {
      "inputs": [
        {
          "internalType": "uint256",
          "name": "len",
          "type": "uint256"
        }
      ],
      "name": "test",
      "outputs": [],
      "stateMutability": "nonpayable",
      "type": "function"
    }
  ],
  "bytecode": "0x608060405234801561001057600080fd5b506107d9806100206000396000f3fe608060405234801561001057600080fd5b50600436106100885760003560e01c80634cc822151161005b5780634cc82215146100d95780637dee403b146100f55780638d80fe5014610111578063d39fa2331461014157610088565b80630baecdf21461008d5780631003e2d21461009757806329e99f07146100b35780632dd13089146100cf575b600080fd5b610095610171565b005b6100b160048036038101906100ac9190610683565b61019d565b005b6100cd60048036038101906100c89190610683565b6101c9565b005b6100d761033c565b005b6100f360048036038101906100ee9190610683565b61038f565b005b61010f600480360381019061010a9190610683565b6104ec565b005b61012b6004803603810190610126919061063e565b61052f565b60405161013891906106bb565b60405180910390f35b61015b60048036038101906101569190610683565b610551565b60405161016891906106bb565b60405180910390f35b6000600a80549050905060005b8181101561019957808061019190610714565b91505061017e565b5050565b600a81908060018154018082558091505060019003906000526020600020016000909190919091505550565b60008060405180608001604052806040518060400160405280600481526020017f546869730000000000000000000000000000000000000000000000000000000081525081526020016040518060400160405280600281526020017f697300000000000000000000000000000000000000000000000000000000000081525081526020016040518060400160405280600281526020017f616e00000000000000000000000000000000000000000000000000000000000081525081526020016040518060400160405280600581526020017f6172726179000000000000000000000000000000000000000000000000000000815250815250905060008367ffffffffffffffff811115610305577f4e487b7100000000000000000000000000000000000000000000000000000000600052604160045260246000fd5b6040519080825280602002602001820160405280156103335781602001602082028036833780820191505090505b50905050505050565b6000600a905060018160008154811061037e577f4e487b7100000000000000000000000000000000000000000000000000000000600052603260045260246000fd5b906000526020600020018190555050565b6000600a8054905090506001816103a691906106d6565b82141561040057600a8054806103e5577f4e487b7100000000000000000000000000000000000000000000000000000000600052603160045260246000fd5b600190038181906000526020600020016000905590556104e8565b600a60018261040f91906106d6565b81548110610446577f4e487b7100000000000000000000000000000000000000000000000000000000600052603260045260246000fd5b9060005260206000200154600a838154811061048b577f4e487b7100000000000000000000000000000000000000000000000000000000600052603260045260246000fd5b9060005260206000200181905550600a8054806104d1577f4e487b7100000000000000000000000000000000000000000000000000000000600052603160045260246000fd5b600190038181906000526020600020016000905590555b5050565b80600080600a8110610527577f4e487b7100000000000000000000000000000000000000000000000000000000600052603260045260246000fd5b018190555050565b60008282600a9190610542929190610575565b50600a80549050905092915050565b600a818154811061056157600080fd5b906000526020600020016000915090505481565b8280548282559060005260206000209081019282156105b1579160200282015b828111156105b0578235825591602001919060010190610595565b5b5090506105be91906105c2565b5090565b5b808211156105db5760008160009055506001016105c3565b5090565b60008083601f8401126105f157600080fd5b8235905067ffffffffffffffff81111561060a57600080fd5b60208301915083602082028301111561062257600080fd5b9250929050565b6000813590506106388161078c565b92915050565b6000806020838503121561065157600080fd5b600083013567ffffffffffffffff81111561066b57600080fd5b610677858286016105df565b92509250509250929050565b60006020828403121561069557600080fd5b60006106a384828501610629565b91505092915050565b6106b58161070a565b82525050565b60006020820190506106d060008301846106ac565b92915050565b60006106e18261070a565b91506106ec8361070a565b9250828210156106ff576106fe61075d565b5b828203905092915050565b6000819050919050565b600061071f8261070a565b91507fffffffffffffffffffffffffffffffffffffffffffffffffffffffffffffffff8214156107525761075161075d565b5b600182019050919050565b7f4e487b7100000000000000000000000000000000000000000000000000000000600052601160045260246000fd5b6107958161070a565b81146107a057600080fd5b5056fea26469706673582212204e92391add2b9ca2309bf1f78d19b8260255851853a1ad5381c2a75f2016419364736f6c63430008040033",
  "linkReferences": {},
  "deployedLinkReferences": {}
}