{
  "_format": "hh-sol-artifact-1",
  "contractName": "TestLib",
  "sourceName": "contracts/testLib.sol",
  "abi": [
    {
      "inputs": [
        {
          "internalType": "uint256",
          "name": "x",
          "type": "uint256"
        },
        {
          "internalType": "uint256",
          "name": "y",
          "type": "uint256"
        }
      ],
      "name": "testAdd",
      "outputs": [
        {
          "internalType": "uint256",
          "name": "",
          "type": "uint256"
        }
      ],
      "stateMutability": "pure",
      "type": "function"
    }
  ],
  "bytecode": "0x608060405234801561001057600080fd5b506102af806100206000396000f3fe608060405234801561001057600080fd5b506004361061002b5760003560e01c80637c3ffef214610030575b600080fd5b61004a600480360381019061004591906100f0565b610060565b604051610057919061017e565b60405180910390f35b6000610075828461007d90919063ffffffff16565b905092915050565b600080828461008c91906101aa565b9050838110156100d1576040517f08c379a00000000000000000000000000000000000000000000000000000000081526004016100c89061015e565b60405180910390fd5b8091505092915050565b6000813590506100ea81610262565b92915050565b6000806040838503121561010357600080fd5b6000610111858286016100db565b9250506020610122858286016100db565b9150509250929050565b6000610139600d83610199565b915061014482610239565b602082019050919050565b61015881610200565b82525050565b600060208201905081810360008301526101778161012c565b9050919050565b6000602082019050610193600083018461014f565b92915050565b600082825260208201905092915050565b60006101b582610200565b91506101c083610200565b9250827fffffffffffffffffffffffffffffffffffffffffffffffffffffffffffffffff038211156101f5576101f461020a565b5b828201905092915050565b6000819050919050565b7f4e487b7100000000000000000000000000000000000000000000000000000000600052601160045260246000fd5b7f75696e74206f766572666c6f7700000000000000000000000000000000000000600082015250565b61026b81610200565b811461027657600080fd5b5056fea26469706673582212207335773a6be8c7c6656713d92d3919b875f7438772d96212d5198be1e6bc8cd864736f6c63430008040033",
  "linkReferences": {},
  "deployedLinkReferences": {}
}