{
  "_format": "hh-sol-artifact-1",
  "contractName": "testModifier",
  "sourceName": "contracts/testModifier.sol",
  "abi": [
    {
      "inputs": [],
      "stateMutability": "nonpayable",
      "type": "constructor"
    },
    {
      "stateMutability": "payable",
      "type": "fallback"
    },
    {
      "inputs": [],
      "name": "getDeposited",
      "outputs": [
        {
          "internalType": "uint256",
          "name": "",
          "type": "uint256"
        }
      ],
      "stateMutability": "view",
      "type": "function"
    },
    {
      "inputs": [],
      "name": "owner",
      "outputs": [
        {
          "internalType": "address",
          "name": "",
          "type": "address"
        }
      ],
      "stateMutability": "view",
      "type": "function"
    },
    {
      "inputs": [],
      "name": "withdraw",
      "outputs": [],
      "stateMutability": "nonpayable",
      "type": "function"
    }
  ],
  "bytecode": "0x6080604052600060015534801561001557600080fd5b50336000806101000a81548173ffffffffffffffffffffffffffffffffffffffff021916908373ffffffffffffffffffffffffffffffffffffffff1602179055506103b0806100656000396000f3fe6080604052600436106100385760003560e01c80631387c4fd146100545780633ccfd60b1461007f5780638da5cb5b1461009657610039565b5b346001600082825461004b9190610290565b92505081905550005b34801561006057600080fd5b506100696100c1565b6040516100769190610264565b60405180910390f35b34801561008b57600080fd5b506100946100cb565b005b3480156100a257600080fd5b506100ab6101c4565b6040516100b89190610229565b60405180910390f35b6000600154905090565b60008054906101000a900473ffffffffffffffffffffffffffffffffffffffff1673ffffffffffffffffffffffffffffffffffffffff163373ffffffffffffffffffffffffffffffffffffffff1614610159576040517f08c379a000000000000000000000000000000000000000000000000000000000815260040161015090610244565b60405180910390fd5b60008054906101000a900473ffffffffffffffffffffffffffffffffffffffff1673ffffffffffffffffffffffffffffffffffffffff166108fc6001549081150290604051600060405180830381858888f193505050501580156101c1573d6000803e3d6000fd5b50565b60008054906101000a900473ffffffffffffffffffffffffffffffffffffffff1681565b6101f1816102e6565b82525050565b600061020460098361027f565b915061020f82610351565b602082019050919050565b61022381610318565b82525050565b600060208201905061023e60008301846101e8565b92915050565b6000602082019050818103600083015261025d816101f7565b9050919050565b6000602082019050610279600083018461021a565b92915050565b600082825260208201905092915050565b600061029b82610318565b91506102a683610318565b9250827fffffffffffffffffffffffffffffffffffffffffffffffffffffffffffffffff038211156102db576102da610322565b5b828201905092915050565b60006102f1826102f8565b9050919050565b600073ffffffffffffffffffffffffffffffffffffffff82169050919050565b6000819050919050565b7f4e487b7100000000000000000000000000000000000000000000000000000000600052601160045260246000fd5b7f4e6f74206f776e6572000000000000000000000000000000000000000000000060008201525056fea2646970667358221220d8e1618756e8af1ca27d6add30f1506431e6a1369dec73939d43e7445c00113c64736f6c63430008040033",
  "linkReferences": {},
  "deployedLinkReferences": {}
}