{
  "_format": "hh-sol-artifact-1",
  "contractName": "A",
  "sourceName": "contracts/testIs.sol",
  "abi": [
    {
      "inputs": [],
      "stateMutability": "nonpayable",
      "type": "constructor"
    },
    {
      "inputs": [],
      "name": "a",
      "outputs": [
        {
          "internalType": "uint256",
          "name": "",
          "type": "uint256"
        }
      ],
      "stateMutability": "view",
      "type": "function"
    }
  ],
  "bytecode": "0x608060405234801561001057600080fd5b50600160008190555060b3806100276000396000f3fe6080604052348015600f57600080fd5b506004361060285760003560e01c80630dbe671f14602d575b600080fd5b60336047565b604051603e9190605a565b60405180910390f35b60005481565b6054816073565b82525050565b6000602082019050606d6000830184604d565b92915050565b600081905091905056fea26469706673582212201dd1770963a428a2963c9e70e18b07f1633acb2fda77769b4e038ccc565b2d8b64736f6c63430008040033",
  "linkReferences": {},
  "deployedLinkReferences": {}
}