{
  "_format": "hh-sol-artifact-1",
  "contractName": "Bank",
  "sourceName": "contracts/Bank.sol",
  "abi": [
    {
      "inputs": [],
      "stateMutability": "nonpayable",
      "type": "constructor"
    },
    {
      "inputs": [
        {
          "internalType": "address",
          "name": "",
          "type": "address"
        }
      ],
      "name": "deposits",
      "outputs": [
        {
          "internalType": "uint256",
          "name": "",
          "type": "uint256"
        }
      ],
      "stateMutability": "view",
      "type": "function"
    },
    {
      "inputs": [],
      "name": "myDeposited",
      "outputs": [
        {
          "internalType": "uint256",
          "name": "",
          "type": "uint256"
        }
      ],
      "stateMutability": "view",
      "type": "function"
    },
    {
      "inputs": [],
      "name": "owner",
      "outputs": [
        {
          "internalType": "address",
          "name": "",
          "type": "address"
        }
      ],
      "stateMutability": "view",
      "type": "function"
    },
    {
      "inputs": [],
      "name": "withdraw",
      "outputs": [],
      "stateMutability": "nonpayable",
      "type": "function"
    },
    {
      "inputs": [],
      "name": "withdrawAll",
      "outputs": [],
      "stateMutability": "nonpayable",
      "type": "function"
    },
    {
      "stateMutability": "payable",
      "type": "receive"
    }
  ],
  "bytecode": "0x608060405234801561001057600080fd5b50336000806101000a81548173ffffffffffffffffffffffffffffffffffffffff021916908373ffffffffffffffffffffffffffffffffffffffff1602179055506107b3806100606000396000f3fe60806040526004361061004e5760003560e01c80633ccfd60b146100b0578063853828b6146100c75780638da5cb5b146100de578063adacda7914610109578063fc7e286d14610134576100ab565b366100ab5734600160003373ffffffffffffffffffffffffffffffffffffffff1673ffffffffffffffffffffffffffffffffffffffff16815260200190815260200160002060008282546100a29190610620565b92505081905550005b600080fd5b3480156100bc57600080fd5b506100c5610171565b005b3480156100d357600080fd5b506100dc610319565b005b3480156100ea57600080fd5b506100f3610416565b6040516101009190610583565b60405180910390f35b34801561011557600080fd5b5061011e61043a565b60405161012b91906105de565b60405180910390f35b34801561014057600080fd5b5061015b600480360381019061015691906104ae565b610481565b60405161016891906105de565b60405180910390f35b60003373ffffffffffffffffffffffffffffffffffffffff16600160003373ffffffffffffffffffffffffffffffffffffffff1673ffffffffffffffffffffffffffffffffffffffff16815260200190815260200160002054600067ffffffffffffffff81111561020b577f4e487b7100000000000000000000000000000000000000000000000000000000600052604160045260246000fd5b6040519080825280601f01601f19166020018201604052801561023d5781602001600182028036833780820191505090505b5060405161024b919061056c565b60006040518083038185875af1925050503d8060008114610288576040519150601f19603f3d011682016040523d82523d6000602084013e61028d565b606091505b50509050806102d1576040517f08c379a00000000000000000000000000000000000000000000000000000000081526004016102c8906105be565b60405180910390fd5b6000600160003373ffffffffffffffffffffffffffffffffffffffff1673ffffffffffffffffffffffffffffffffffffffff1681526020019081526020016000208190555050565b60008054906101000a900473ffffffffffffffffffffffffffffffffffffffff1673ffffffffffffffffffffffffffffffffffffffff163373ffffffffffffffffffffffffffffffffffffffff16146103a7576040517f08c379a000000000000000000000000000000000000000000000000000000000815260040161039e9061059e565b60405180910390fd5b600047905060008054906101000a900473ffffffffffffffffffffffffffffffffffffffff1673ffffffffffffffffffffffffffffffffffffffff166108fc829081150290604051600060405180830381858888f19350505050158015610412573d6000803e3d6000fd5b5050565b60008054906101000a900473ffffffffffffffffffffffffffffffffffffffff1681565b6000600160003373ffffffffffffffffffffffffffffffffffffffff1673ffffffffffffffffffffffffffffffffffffffff16815260200190815260200160002054905090565b60016020528060005260406000206000915090505481565b6000813590506104a881610766565b92915050565b6000602082840312156104c057600080fd5b60006104ce84828501610499565b91505092915050565b6104e081610676565b82525050565b60006104f1826105f9565b6104fb8185610604565b935061050b8185602086016106b2565b80840191505092915050565b600061052460098361060f565b915061052f82610714565b602082019050919050565b600061054760138361060f565b91506105528261073d565b602082019050919050565b610566816106a8565b82525050565b600061057882846104e6565b915081905092915050565b600060208201905061059860008301846104d7565b92915050565b600060208201905081810360008301526105b781610517565b9050919050565b600060208201905081810360008301526105d78161053a565b9050919050565b60006020820190506105f3600083018461055d565b92915050565b600081519050919050565b600081905092915050565b600082825260208201905092915050565b600061062b826106a8565b9150610636836106a8565b9250827fffffffffffffffffffffffffffffffffffffffffffffffffffffffffffffffff0382111561066b5761066a6106e5565b5b828201905092915050565b600061068182610688565b9050919050565b600073ffffffffffffffffffffffffffffffffffffffff82169050919050565b6000819050919050565b60005b838110156106d05780820151818401526020810190506106b5565b838111156106df576000848401525b50505050565b7f4e487b7100000000000000000000000000000000000000000000000000000000600052601160045260246000fd5b7f4e6f74206f776e65720000000000000000000000000000000000000000000000600082015250565b7f455448207472616e73666572206661696c656400000000000000000000000000600082015250565b61076f81610676565b811461077a57600080fd5b5056fea2646970667358221220e855266bfae75d0da302b8f717636f17833709051e2a5c661cb99e95ec03577a64736f6c63430008040033",
  "linkReferences": {},
  "deployedLinkReferences": {}
}