{
  "_format": "hh-sol-artifact-1",
  "contractName": "CallTest",
  "sourceName": "contracts/testCall_Delegate.sol",
  "abi": [
    {
      "inputs": [
        {
          "internalType": "contract Counter",
          "name": "c",
          "type": "address"
        }
      ],
      "name": "callCount",
      "outputs": [],
      "stateMutability": "nonpayable",
      "type": "function"
    },
    {
      "inputs": [],
      "name": "counter",
      "outputs": [
        {
          "internalType": "uint256",
          "name": "",
          "type": "uint256"
        }
      ],
      "stateMutability": "view",
      "type": "function"
    },
    {
      "inputs": [
        {
          "internalType": "address",
          "name": "addr",
          "type": "address"
        }
      ],
      "name": "lowCallCount",
      "outputs": [],
      "stateMutability": "nonpayable",
      "type": "function"
    },
    {
      "inputs": [
        {
          "internalType": "address",
          "name": "addr",
          "type": "address"
        }
      ],
      "name": "lowDelegatecallCount",
      "outputs": [],
      "stateMutability": "nonpayable",
      "type": "function"
    },
    {
      "inputs": [],
      "name": "sender",
      "outputs": [
        {
          "internalType": "address",
          "name": "",
          "type": "address"
        }
      ],
      "stateMutability": "view",
      "type": "function"
    }
  ],
  "bytecode": "0x608060405234801561001057600080fd5b50610588806100206000396000f3fe608060405234801561001057600080fd5b50600436106100575760003560e01c806361bc221a1461005c57806367e404ce1461007a578063759502ce146100985780639c018209146100b4578063e22f8b68146100d0575b600080fd5b6100646100ec565b6040516100719190610460565b60405180910390f35b6100826100f2565b60405161008f9190610445565b60405180910390f35b6100b260048036038101906100ad919061038d565b610118565b005b6100ce60048036038101906100c991906103b6565b61020d565b005b6100ea60048036038101906100e5919061038d565b610270565b005b60005481565b600160009054906101000a900473ffffffffffffffffffffffffffffffffffffffff1681565b60006040516024016040516020818303038152906040527f06661abd000000000000000000000000000000000000000000000000000000007bffffffffffffffffffffffffffffffffffffffffffffffffffffffff19166020820180517bffffffffffffffffffffffffffffffffffffffffffffffffffffffff838183161783525050505090508173ffffffffffffffffffffffffffffffffffffffff16816040516101c4919061042e565b6000604051808303816000865af19150503d8060008114610201576040519150601f19603f3d011682016040523d82523d6000602084013e610206565b606091505b5050505050565b8073ffffffffffffffffffffffffffffffffffffffff166306661abd6040518163ffffffff1660e01b8152600401600060405180830381600087803b15801561025557600080fd5b505af1158015610269573d6000803e3d6000fd5b5050505050565b60006040516024016040516020818303038152906040527f06661abd000000000000000000000000000000000000000000000000000000007bffffffffffffffffffffffffffffffffffffffffffffffffffffffff19166020820180517bffffffffffffffffffffffffffffffffffffffffffffffffffffffff838183161783525050505090508173ffffffffffffffffffffffffffffffffffffffff168160405161031c919061042e565b600060405180830381855af49150503d8060008114610357576040519150601f19603f3d011682016040523d82523d6000602084013e61035c565b606091505b5050505050565b60008135905061037281610524565b92915050565b6000813590506103878161053b565b92915050565b60006020828403121561039f57600080fd5b60006103ad84828501610363565b91505092915050565b6000602082840312156103c857600080fd5b60006103d684828501610378565b91505092915050565b6103e881610491565b82525050565b60006103f98261047b565b6104038185610486565b93506104138185602086016104f1565b80840191505092915050565b610428816104e7565b82525050565b600061043a82846103ee565b915081905092915050565b600060208201905061045a60008301846103df565b92915050565b6000602082019050610475600083018461041f565b92915050565b600081519050919050565b600081905092915050565b600061049c826104c7565b9050919050565b60006104ae826104c7565b9050919050565b60006104c0826104a3565b9050919050565b600073ffffffffffffffffffffffffffffffffffffffff82169050919050565b6000819050919050565b60005b8381101561050f5780820151818401526020810190506104f4565b8381111561051e576000848401525b50505050565b61052d81610491565b811461053857600080fd5b50565b610544816104b5565b811461054f57600080fd5b5056fea2646970667358221220b67c46087f39bb545ab3334dd9b0c8ba4973953f05e84dd027310aa99c466c7d64736f6c63430008040033",
  "linkReferences": {},
  "deployedLinkReferences": {}
}