{
  "_format": "hh-sol-artifact-1",
  "contractName": "Counter",
  "sourceName": "contracts/testCall_Delegate.sol",
  "abi": [
    {
      "stateMutability": "payable",
      "type": "fallback"
    },
    {
      "inputs": [],
      "name": "count",
      "outputs": [],
      "stateMutability": "nonpayable",
      "type": "function"
    },
    {
      "inputs": [],
      "name": "counter",
      "outputs": [
        {
          "internalType": "uint256",
          "name": "",
          "type": "uint256"
        }
      ],
      "stateMutability": "view",
      "type": "function"
    },
    {
      "inputs": [],
      "name": "sender",
      "outputs": [
        {
          "internalType": "address",
          "name": "",
          "type": "address"
        }
      ],
      "stateMutability": "view",
      "type": "function"
    }
  ],
  "bytecode": "0x608060405234801561001057600080fd5b5061027b806100206000396000f3fe6080604052600436106100385760003560e01c806306661abd1461003b57806361bc221a1461005257806367e404ce1461007d57610039565b5b005b34801561004757600080fd5b506100506100a8565b005b34801561005e57600080fd5b50610067610104565b6040516100749190610169565b60405180910390f35b34801561008957600080fd5b5061009261010a565b60405161009f919061014e565b60405180910390f35b60016000808282546100ba9190610184565b9250508190555033600160006101000a81548173ffffffffffffffffffffffffffffffffffffffff021916908373ffffffffffffffffffffffffffffffffffffffff160217905550565b60005481565b600160009054906101000a900473ffffffffffffffffffffffffffffffffffffffff1681565b610139816101da565b82525050565b6101488161020c565b82525050565b60006020820190506101636000830184610130565b92915050565b600060208201905061017e600083018461013f565b92915050565b600061018f8261020c565b915061019a8361020c565b9250827fffffffffffffffffffffffffffffffffffffffffffffffffffffffffffffffff038211156101cf576101ce610216565b5b828201905092915050565b60006101e5826101ec565b9050919050565b600073ffffffffffffffffffffffffffffffffffffffff82169050919050565b6000819050919050565b7f4e487b7100000000000000000000000000000000000000000000000000000000600052601160045260246000fdfea2646970667358221220fe5ac995d1f03c893d123f20c0f833b5c47d3d0b989c1583e72ca37c713cf6b764736f6c63430008040033",
  "linkReferences": {},
  "deployedLinkReferences": {}
}