{
  "_format": "hh-sol-artifact-1",
  "contractName": "TestExLib",
  "sourceName": "contracts/testExLib.sol",
  "abi": [
    {
      "inputs": [
        {
          "internalType": "uint256",
          "name": "x",
          "type": "uint256"
        },
        {
          "internalType": "uint256",
          "name": "y",
          "type": "uint256"
        }
      ],
      "name": "testAdd",
      "outputs": [
        {
          "internalType": "uint256",
          "name": "",
          "type": "uint256"
        }
      ],
      "stateMutability": "nonpayable",
      "type": "function"
    }
  ],
  "bytecode": "0x608060405234801561001057600080fd5b50610241806100206000396000f3fe608060405234801561001057600080fd5b506004361061002b5760003560e01c80637c3ffef214610030575b600080fd5b61004a6004803603810190610045919061014c565b610060565b60405161005791906101a6565b60405180910390f35b60008273__$4395ed88c1a5822e87daf589b48a0eb448$__63771602f79091846040518363ffffffff1660e01b815260040161009d9291906101c1565b60206040518083038186803b1580156100b557600080fd5b505af41580156100c9573d6000803e3d6000fd5b505050506040513d601f19601f820116820180604052508101906100ed9190610123565b60008190555092915050565b600081359050610108816101f4565b92915050565b60008151905061011d816101f4565b92915050565b60006020828403121561013557600080fd5b60006101438482850161010e565b91505092915050565b6000806040838503121561015f57600080fd5b600061016d858286016100f9565b925050602061017e858286016100f9565b9150509250929050565b610191816101ea565b82525050565b6101a0816101ea565b82525050565b60006020820190506101bb6000830184610188565b92915050565b60006040820190506101d66000830185610197565b6101e36020830184610197565b9392505050565b6000819050919050565b6101fd816101ea565b811461020857600080fd5b5056fea26469706673582212201a7a7db487f41c88b75795bb1274dd191356ac8d8b0cfc692c6f6782000828da64736f6c63430008040033",
  "linkReferences": {
    "contracts/testExLib.sol": {
      "ExLib": [
        {
          "length": 20,
          "start": 133
        }
      ]
    }
  },
  "deployedLinkReferences": {
    "contracts/testExLib.sol": {
      "ExLib": [
        {
          "length": 20,
          "start": 101
        }
      ]
    }
  }
}