{
  "_format": "hh-sol-artifact-1",
  "contractName": "Counter",
  "sourceName": "contracts/testABI.sol",
  "abi": [
    {
      "inputs": [],
      "stateMutability": "nonpayable",
      "type": "constructor"
    },
    {
      "inputs": [],
      "name": "count",
      "outputs": [],
      "stateMutability": "nonpayable",
      "type": "function"
    },
    {
      "inputs": [],
      "name": "counter",
      "outputs": [
        {
          "internalType": "uint256",
          "name": "",
          "type": "uint256"
        }
      ],
      "stateMutability": "view",
      "type": "function"
    }
  ],
  "bytecode": "0x608060405234801561001057600080fd5b506000808190555061016f806100276000396000f3fe608060405234801561001057600080fd5b50600436106100365760003560e01c806306661abd1461003b57806361bc221a14610045575b600080fd5b610043610063565b005b61004d61007a565b60405161005a919061008f565b60405180910390f35b600160005461007291906100aa565b600081905550565b60005481565b61008981610100565b82525050565b60006020820190506100a46000830184610080565b92915050565b60006100b582610100565b91506100c083610100565b9250827fffffffffffffffffffffffffffffffffffffffffffffffffffffffffffffffff038211156100f5576100f461010a565b5b828201905092915050565b6000819050919050565b7f4e487b7100000000000000000000000000000000000000000000000000000000600052601160045260246000fdfea2646970667358221220859756e5aa79c368311d5aacf7db33848b52d926df42627fdfb338826bc48fd564736f6c63430008040033",
  "linkReferences": {},
  "deployedLinkReferences": {}
}