{
  "_format": "hh-sol-artifact-1",
  "contractName": "testAbi",
  "sourceName": "contracts/testABI.sol",
  "abi": [
    {
      "inputs": [
        {
          "internalType": "address",
          "name": "counter",
          "type": "address"
        },
        {
          "internalType": "bytes",
          "name": "payload",
          "type": "bytes"
        }
      ],
      "name": "call",
      "outputs": [],
      "stateMutability": "nonpayable",
      "type": "function"
    },
    {
      "inputs": [],
      "name": "newCall",
      "outputs": [],
      "stateMutability": "nonpayable",
      "type": "function"
    }
  ],
  "bytecode": "0x608060405234801561001057600080fd5b5061067a806100206000396000f3fe608060405234801561001057600080fd5b50600436106100365760003560e01c80631b8b921d1461003b578063bfaace8114610057575b600080fd5b6100556004803603810190610050919061022d565b610061565b005b61005f610113565b005b60008273ffffffffffffffffffffffffffffffffffffffff168260405161008891906102d5565b6000604051808303816000865af19150503d80600081146100c5576040519150601f19603f3d011682016040523d82523d6000602084013e6100ca565b606091505b505090508061010e576040517f08c379a0000000000000000000000000000000000000000000000000000000008152600401610105906102ec565b60405180910390fd5b505050565b6000604051610121906101a3565b604051809103906000f08015801561013d573d6000803e3d6000fd5b5090508073ffffffffffffffffffffffffffffffffffffffff166306661abd6040518163ffffffff1660e01b8152600401600060405180830381600087803b15801561018857600080fd5b505af115801561019c573d6000803e3d6000fd5b5050505050565b610196806104af83390190565b60006101c36101be84610331565b61030c565b9050828152602081018484840111156101db57600080fd5b6101e68482856103bb565b509392505050565b6000813590506101fd81610497565b92915050565b600082601f83011261021457600080fd5b81356102248482602086016101b0565b91505092915050565b6000806040838503121561024057600080fd5b600061024e858286016101ee565b925050602083013567ffffffffffffffff81111561026b57600080fd5b61027785828601610203565b9150509250929050565b600061028c82610362565b610296818561036d565b93506102a68185602086016103ca565b80840191505092915050565b60006102bf600683610378565b91506102ca8261046e565b602082019050919050565b60006102e18284610281565b915081905092915050565b60006020820190508181036000830152610305816102b2565b9050919050565b6000610316610327565b905061032282826103fd565b919050565b6000604051905090565b600067ffffffffffffffff82111561034c5761034b61042e565b5b6103558261045d565b9050602081019050919050565b600081519050919050565b600081905092915050565b600082825260208201905092915050565b60006103948261039b565b9050919050565b600073ffffffffffffffffffffffffffffffffffffffff82169050919050565b82818337600083830152505050565b60005b838110156103e85780820151818401526020810190506103cd565b838111156103f7576000848401525b50505050565b6104068261045d565b810181811067ffffffffffffffff821117156104255761042461042e565b5b80604052505050565b7f4e487b7100000000000000000000000000000000000000000000000000000000600052604160045260246000fd5b6000601f19601f8301169050919050565b7f6661696c65640000000000000000000000000000000000000000000000000000600082015250565b6104a081610389565b81146104ab57600080fd5b5056fe608060405234801561001057600080fd5b506000808190555061016f806100276000396000f3fe608060405234801561001057600080fd5b50600436106100365760003560e01c806306661abd1461003b57806361bc221a14610045575b600080fd5b610043610063565b005b61004d61007a565b60405161005a919061008f565b60405180910390f35b600160005461007291906100aa565b600081905550565b60005481565b61008981610100565b82525050565b60006020820190506100a46000830184610080565b92915050565b60006100b582610100565b91506100c083610100565b9250827fffffffffffffffffffffffffffffffffffffffffffffffffffffffffffffffff038211156100f5576100f461010a565b5b828201905092915050565b6000819050919050565b7f4e487b7100000000000000000000000000000000000000000000000000000000600052601160045260246000fdfea2646970667358221220859756e5aa79c368311d5aacf7db33848b52d926df42627fdfb338826bc48fd564736f6c63430008040033a264697066735822122047b9025f4cfcc03ef4fe35da386b64cd4eca7e98bf68370bdb5fc84fc836ca8d64736f6c63430008040033",
  "linkReferences": {},
  "deployedLinkReferences": {}
}