{"contracts/Bank.sol":{"Bank":{"abi":[{"inputs":[],"stateMutability":"nonpayable","type":"constructor"},{"inputs":[{"internalType":"address","name":"","type":"address"}],"name":"deposits","outputs":[{"internalType":"uint256","name":"","type":"uint256"}],"stateMutability":"view","type":"function"},{"inputs":[],"name":"myDeposited","outputs":[{"internalType":"uint256","name":"","type":"uint256"}],"stateMutability":"view","type":"function"},{"inputs":[],"name":"owner","outputs":[{"internalType":"address","name":"","type":"address"}],"stateMutability":"view","type":"function"},{"inputs":[],"name":"withdraw","outputs":[],"stateMutability":"nonpayable","type":"function"},{"inputs":[],"name":"withdrawAll","outputs":[],"stateMutability":"nonpayable","type":"function"},{"stateMutability":"payable","type":"receive"}],"evm":{"bytecode":{"linkReferences":{},"object":"608060405234801561001057600080fd5b50336000806101000a81548173ffffffffffffffffffffffffffffffffffffffff021916908373ffffffffffffffffffffffffffffffffffffffff1602179055506107b3806100606000396000f3fe60806040526004361061004e5760003560e01c80633ccfd60b146100b0578063853828b6146100c75780638da5cb5b146100de578063adacda7914610109578063fc7e286d14610134576100ab565b366100ab5734600160003373ffffffffffffffffffffffffffffffffffffffff1673ffffffffffffffffffffffffffffffffffffffff16815260200190815260200160002060008282546100a29190610620565b92505081905550005b600080fd5b3480156100bc57600080fd5b506100c5610171565b005b3480156100d357600080fd5b506100dc610319565b005b3480156100ea57600080fd5b506100f3610416565b6040516101009190610583565b60405180910390f35b34801561011557600080fd5b5061011e61043a565b60405161012b91906105de565b60405180910390f35b34801561014057600080fd5b5061015b600480360381019061015691906104ae565b610481565b60405161016891906105de565b60405180910390f35b60003373ffffffffffffffffffffffffffffffffffffffff16600160003373ffffffffffffffffffffffffffffffffffffffff1673ffffffffffffffffffffffffffffffffffffffff16815260200190815260200160002054600067ffffffffffffffff81111561020b577f4e487b7100000000000000000000000000000000000000000000000000000000600052604160045260246000fd5b6040519080825280601f01601f19166020018201604052801561023d5781602001600182028036833780820191505090505b5060405161024b919061056c565b60006040518083038185875af1925050503d8060008114610288576040519150601f19603f3d011682016040523d82523d6000602084013e61028d565b606091505b50509050806102d1576040517f08c379a00000000000000000000000000000000000000000000000000000000081526004016102c8906105be565b60405180910390fd5b6000600160003373ffffffffffffffffffffffffffffffffffffffff1673ffffffffffffffffffffffffffffffffffffffff1681526020019081526020016000208190555050565b60008054906101000a900473ffffffffffffffffffffffffffffffffffffffff1673ffffffffffffffffffffffffffffffffffffffff163373ffffffffffffffffffffffffffffffffffffffff16146103a7576040517f08c379a000000000000000000000000000000000000000000000000000000000815260040161039e9061059e565b60405180910390fd5b600047905060008054906101000a900473ffffffffffffffffffffffffffffffffffffffff1673ffffffffffffffffffffffffffffffffffffffff166108fc829081150290604051600060405180830381858888f19350505050158015610412573d6000803e3d6000fd5b5050565b60008054906101000a900473ffffffffffffffffffffffffffffffffffffffff1681565b6000600160003373ffffffffffffffffffffffffffffffffffffffff1673ffffffffffffffffffffffffffffffffffffffff16815260200190815260200160002054905090565b60016020528060005260406000206000915090505481565b6000813590506104a881610766565b92915050565b6000602082840312156104c057600080fd5b60006104ce84828501610499565b91505092915050565b6104e081610676565b82525050565b60006104f1826105f9565b6104fb8185610604565b935061050b8185602086016106b2565b80840191505092915050565b600061052460098361060f565b915061052f82610714565b602082019050919050565b600061054760138361060f565b91506105528261073d565b602082019050919050565b610566816106a8565b82525050565b600061057882846104e6565b915081905092915050565b600060208201905061059860008301846104d7565b92915050565b600060208201905081810360008301526105b781610517565b9050919050565b600060208201905081810360008301526105d78161053a565b9050919050565b60006020820190506105f3600083018461055d565b92915050565b600081519050919050565b600081905092915050565b600082825260208201905092915050565b600061062b826106a8565b9150610636836106a8565b9250827fffffffffffffffffffffffffffffffffffffffffffffffffffffffffffffffff0382111561066b5761066a6106e5565b5b828201905092915050565b600061068182610688565b9050919050565b600073ffffffffffffffffffffffffffffffffffffffff82169050919050565b6000819050919050565b60005b838110156106d05780820151818401526020810190506106b5565b838111156106df576000848401525b50505050565b7f4e487b7100000000000000000000000000000000000000000000000000000000600052601160045260246000fd5b7f4e6f74206f776e65720000000000000000000000000000000000000000000000600082015250565b7f455448207472616e73666572206661696c656400000000000000000000000000600082015250565b61076f81610676565b811461077a57600080fd5b5056fea26469706673582212207662c0a188257c1a3a2ea8b5e1447fe5b6b633ad54860a20037bc1508c0bd0f664736f6c63430008040033","opcodes":"PUSH1 0x80 PUSH1 0x40 MSTORE CALLVALUE DUP1 ISZERO PUSH2 0x10 JUMPI PUSH1 0x0 DUP1 REVERT JUMPDEST POP CALLER PUSH1 0x0 DUP1 PUSH2 0x100 EXP DUP2 SLOAD DUP2 PUSH20 0xFFFFFFFFFFFFFFFFFFFFFFFFFFFFFFFFFFFFFFFF MUL NOT AND SWAP1 DUP4 PUSH20 0xFFFFFFFFFFFFFFFFFFFFFFFFFFFFFFFFFFFFFFFF AND MUL OR SWAP1 SSTORE POP PUSH2 0x7B3 DUP1 PUSH2 0x60 PUSH1 0x0 CODECOPY PUSH1 0x0 RETURN INVALID PUSH1 0x80 PUSH1 0x40 MSTORE PUSH1 0x4 CALLDATASIZE LT PUSH2 0x4E JUMPI PUSH1 0x0 CALLDATALOAD PUSH1 0xE0 SHR DUP1 PUSH4 0x3CCFD60B EQ PUSH2 0xB0 JUMPI DUP1 PUSH4 0x853828B6 EQ PUSH2 0xC7 JUMPI DUP1 PUSH4 0x8DA5CB5B EQ PUSH2 0xDE JUMPI DUP1 PUSH4 0xADACDA79 EQ PUSH2 0x109 JUMPI DUP1 PUSH4 0xFC7E286D EQ PUSH2 0x134 JUMPI PUSH2 0xAB JUMP JUMPDEST CALLDATASIZE PUSH2 0xAB JUMPI CALLVALUE PUSH1 0x1 PUSH1 0x0 CALLER PUSH20 0xFFFFFFFFFFFFFFFFFFFFFFFFFFFFFFFFFFFFFFFF AND PUSH20 0xFFFFFFFFFFFFFFFFFFFFFFFFFFFFFFFFFFFFFFFF AND DUP2 MSTORE PUSH1 0x20 ADD SWAP1 DUP2 MSTORE PUSH1 0x20 ADD PUSH1 0x0 KECCAK256 PUSH1 0x0 DUP3 DUP3 SLOAD PUSH2 0xA2 SWAP2 SWAP1 PUSH2 0x620 JUMP JUMPDEST SWAP3 POP POP DUP2 SWAP1 SSTORE POP STOP JUMPDEST PUSH1 0x0 DUP1 REVERT JUMPDEST CALLVALUE DUP1 ISZERO PUSH2 0xBC JUMPI PUSH1 0x0 DUP1 REVERT JUMPDEST POP PUSH2 0xC5 PUSH2 0x171 JUMP JUMPDEST STOP JUMPDEST CALLVALUE DUP1 ISZERO PUSH2 0xD3 JUMPI PUSH1 0x0 DUP1 REVERT JUMPDEST POP PUSH2 0xDC PUSH2 0x319 JUMP JUMPDEST STOP JUMPDEST CALLVALUE DUP1 ISZERO PUSH2 0xEA JUMPI PUSH1 0x0 DUP1 REVERT JUMPDEST POP PUSH2 0xF3 PUSH2 0x416 JUMP JUMPDEST PUSH1 0x40 MLOAD PUSH2 0x100 SWAP2 SWAP1 PUSH2 0x583 JUMP JUMPDEST PUSH1 0x40 MLOAD DUP1 SWAP2 SUB SWAP1 RETURN JUMPDEST CALLVALUE DUP1 ISZERO PUSH2 0x115 JUMPI PUSH1 0x0 DUP1 REVERT JUMPDEST POP PUSH2 0x11E PUSH2 0x43A JUMP JUMPDEST PUSH1 0x40 MLOAD PUSH2 0x12B SWAP2 SWAP1 PUSH2 0x5DE JUMP JUMPDEST PUSH1 0x40 MLOAD DUP1 SWAP2 SUB SWAP1 RETURN JUMPDEST CALLVALUE DUP1 ISZERO PUSH2 0x140 JUMPI PUSH1 0x0 DUP1 REVERT JUMPDEST POP PUSH2 0x15B PUSH1 0x4 DUP1 CALLDATASIZE SUB DUP2 ADD SWAP1 PUSH2 0x156 SWAP2 SWAP1 PUSH2 0x4AE JUMP JUMPDEST PUSH2 0x481 JUMP JUMPDEST PUSH1 0x40 MLOAD PUSH2 0x168 SWAP2 SWAP1 PUSH2 0x5DE JUMP JUMPDEST PUSH1 0x40 MLOAD DUP1 SWAP2 SUB SWAP1 RETURN JUMPDEST PUSH1 0x0 CALLER PUSH20 0xFFFFFFFFFFFFFFFFFFFFFFFFFFFFFFFFFFFFFFFF AND PUSH1 0x1 PUSH1 0x0 CALLER PUSH20 0xFFFFFFFFFFFFFFFFFFFFFFFFFFFFFFFFFFFFFFFF AND PUSH20 0xFFFFFFFFFFFFFFFFFFFFFFFFFFFFFFFFFFFFFFFF AND DUP2 MSTORE PUSH1 0x20 ADD SWAP1 DUP2 MSTORE PUSH1 0x20 ADD PUSH1 0x0 KECCAK256 SLOAD PUSH1 0x0 PUSH8 0xFFFFFFFFFFFFFFFF DUP2 GT ISZERO PUSH2 0x20B JUMPI PUSH32 0x4E487B7100000000000000000000000000000000000000000000000000000000 PUSH1 0x0 MSTORE PUSH1 0x41 PUSH1 0x4 MSTORE PUSH1 0x24 PUSH1 0x0 REVERT JUMPDEST PUSH1 0x40 MLOAD SWAP1 DUP1 DUP3 MSTORE DUP1 PUSH1 0x1F ADD PUSH1 0x1F NOT AND PUSH1 0x20 ADD DUP3 ADD PUSH1 0x40 MSTORE DUP1 ISZERO PUSH2 0x23D JUMPI DUP2 PUSH1 0x20 ADD PUSH1 0x1 DUP3 MUL DUP1 CALLDATASIZE DUP4 CALLDATACOPY DUP1 DUP3 ADD SWAP2 POP POP SWAP1 POP JUMPDEST POP PUSH1 0x40 MLOAD PUSH2 0x24B SWAP2 SWAP1 PUSH2 0x56C JUMP JUMPDEST PUSH1 0x0 PUSH1 0x40 MLOAD DUP1 DUP4 SUB DUP2 DUP6 DUP8 GAS CALL SWAP3 POP POP POP RETURNDATASIZE DUP1 PUSH1 0x0 DUP2 EQ PUSH2 0x288 JUMPI PUSH1 0x40 MLOAD SWAP2 POP PUSH1 0x1F NOT PUSH1 0x3F RETURNDATASIZE ADD AND DUP3 ADD PUSH1 0x40 MSTORE RETURNDATASIZE DUP3 MSTORE RETURNDATASIZE PUSH1 0x0 PUSH1 0x20 DUP5 ADD RETURNDATACOPY PUSH2 0x28D JUMP JUMPDEST PUSH1 0x60 SWAP2 POP JUMPDEST POP POP SWAP1 POP DUP1 PUSH2 0x2D1 JUMPI PUSH1 0x40 MLOAD PUSH32 0x8C379A000000000000000000000000000000000000000000000000000000000 DUP2 MSTORE PUSH1 0x4 ADD PUSH2 0x2C8 SWAP1 PUSH2 0x5BE JUMP JUMPDEST PUSH1 0x40 MLOAD DUP1 SWAP2 SUB SWAP1 REVERT JUMPDEST PUSH1 0x0 PUSH1 0x1 PUSH1 0x0 CALLER PUSH20 0xFFFFFFFFFFFFFFFFFFFFFFFFFFFFFFFFFFFFFFFF AND PUSH20 0xFFFFFFFFFFFFFFFFFFFFFFFFFFFFFFFFFFFFFFFF AND DUP2 MSTORE PUSH1 0x20 ADD SWAP1 DUP2 MSTORE PUSH1 0x20 ADD PUSH1 0x0 KECCAK256 DUP2 SWAP1 SSTORE POP POP JUMP JUMPDEST PUSH1 0x0 DUP1 SLOAD SWAP1 PUSH2 0x100 EXP SWAP1 DIV PUSH20 0xFFFFFFFFFFFFFFFFFFFFFFFFFFFFFFFFFFFFFFFF AND PUSH20 0xFFFFFFFFFFFFFFFFFFFFFFFFFFFFFFFFFFFFFFFF AND CALLER PUSH20 0xFFFFFFFFFFFFFFFFFFFFFFFFFFFFFFFFFFFFFFFF AND EQ PUSH2 0x3A7 JUMPI PUSH1 0x40 MLOAD PUSH32 0x8C379A000000000000000000000000000000000000000000000000000000000 DUP2 MSTORE PUSH1 0x4 ADD PUSH2 0x39E SWAP1 PUSH2 0x59E JUMP JUMPDEST PUSH1 0x40 MLOAD DUP1 SWAP2 SUB SWAP1 REVERT JUMPDEST PUSH1 0x0 SELFBALANCE SWAP1 POP PUSH1 0x0 DUP1 SLOAD SWAP1 PUSH2 0x100 EXP SWAP1 DIV PUSH20 0xFFFFFFFFFFFFFFFFFFFFFFFFFFFFFFFFFFFFFFFF AND PUSH20 0xFFFFFFFFFFFFFFFFFFFFFFFFFFFFFFFFFFFFFFFF AND PUSH2 0x8FC DUP3 SWAP1 DUP2 ISZERO MUL SWAP1 PUSH1 0x40 MLOAD PUSH1 0x0 PUSH1 0x40 MLOAD DUP1 DUP4 SUB DUP2 DUP6 DUP9 DUP9 CALL SWAP4 POP POP POP POP ISZERO DUP1 ISZERO PUSH2 0x412 JUMPI RETURNDATASIZE PUSH1 0x0 DUP1 RETURNDATACOPY RETURNDATASIZE PUSH1 0x0 REVERT JUMPDEST POP POP JUMP JUMPDEST PUSH1 0x0 DUP1 SLOAD SWAP1 PUSH2 0x100 EXP SWAP1 DIV PUSH20 0xFFFFFFFFFFFFFFFFFFFFFFFFFFFFFFFFFFFFFFFF AND DUP2 JUMP JUMPDEST PUSH1 0x0 PUSH1 0x1 PUSH1 0x0 CALLER PUSH20 0xFFFFFFFFFFFFFFFFFFFFFFFFFFFFFFFFFFFFFFFF AND PUSH20 0xFFFFFFFFFFFFFFFFFFFFFFFFFFFFFFFFFFFFFFFF AND DUP2 MSTORE PUSH1 0x20 ADD SWAP1 DUP2 MSTORE PUSH1 0x20 ADD PUSH1 0x0 KECCAK256 SLOAD SWAP1 POP SWAP1 JUMP JUMPDEST PUSH1 0x1 PUSH1 0x20 MSTORE DUP1 PUSH1 0x0 MSTORE PUSH1 0x40 PUSH1 0x0 KECCAK256 PUSH1 0x0 SWAP2 POP SWAP1 POP SLOAD DUP2 JUMP JUMPDEST PUSH1 0x0 DUP2 CALLDATALOAD SWAP1 POP PUSH2 0x4A8 DUP2 PUSH2 0x766 JUMP JUMPDEST SWAP3 SWAP2 POP POP JUMP JUMPDEST PUSH1 0x0 PUSH1 0x20 DUP3 DUP5 SUB SLT ISZERO PUSH2 0x4C0 JUMPI PUSH1 0x0 DUP1 REVERT JUMPDEST PUSH1 0x0 PUSH2 0x4CE DUP5 DUP3 DUP6 ADD PUSH2 0x499 JUMP JUMPDEST SWAP2 POP POP SWAP3 SWAP2 POP POP JUMP JUMPDEST PUSH2 0x4E0 DUP2 PUSH2 0x676 JUMP JUMPDEST DUP3 MSTORE POP POP JUMP JUMPDEST PUSH1 0x0 PUSH2 0x4F1 DUP3 PUSH2 0x5F9 JUMP JUMPDEST PUSH2 0x4FB DUP2 DUP6 PUSH2 0x604 JUMP JUMPDEST SWAP4 POP PUSH2 0x50B DUP2 DUP6 PUSH1 0x20 DUP7 ADD PUSH2 0x6B2 JUMP JUMPDEST DUP1 DUP5 ADD SWAP2 POP POP SWAP3 SWAP2 POP POP JUMP JUMPDEST PUSH1 0x0 PUSH2 0x524 PUSH1 0x9 DUP4 PUSH2 0x60F JUMP JUMPDEST SWAP2 POP PUSH2 0x52F DUP3 PUSH2 0x714 JUMP JUMPDEST PUSH1 0x20 DUP3 ADD SWAP1 POP SWAP2 SWAP1 POP JUMP JUMPDEST PUSH1 0x0 PUSH2 0x547 PUSH1 0x13 DUP4 PUSH2 0x60F JUMP JUMPDEST SWAP2 POP PUSH2 0x552 DUP3 PUSH2 0x73D JUMP JUMPDEST PUSH1 0x20 DUP3 ADD SWAP1 POP SWAP2 SWAP1 POP JUMP JUMPDEST PUSH2 0x566 DUP2 PUSH2 0x6A8 JUMP JUMPDEST DUP3 MSTORE POP POP JUMP JUMPDEST PUSH1 0x0 PUSH2 0x578 DUP3 DUP5 PUSH2 0x4E6 JUMP JUMPDEST SWAP2 POP DUP2 SWAP1 POP SWAP3 SWAP2 POP POP JUMP JUMPDEST PUSH1 0x0 PUSH1 0x20 DUP3 ADD SWAP1 POP PUSH2 0x598 PUSH1 0x0 DUP4 ADD DUP5 PUSH2 0x4D7 JUMP JUMPDEST SWAP3 SWAP2 POP POP JUMP JUMPDEST PUSH1 0x0 PUSH1 0x20 DUP3 ADD SWAP1 POP DUP2 DUP2 SUB PUSH1 0x0 DUP4 ADD MSTORE PUSH2 0x5B7 DUP2 PUSH2 0x517 JUMP JUMPDEST SWAP1 POP SWAP2 SWAP1 POP JUMP JUMPDEST PUSH1 0x0 PUSH1 0x20 DUP3 ADD SWAP1 POP DUP2 DUP2 SUB PUSH1 0x0 DUP4 ADD MSTORE PUSH2 0x5D7 DUP2 PUSH2 0x53A JUMP JUMPDEST SWAP1 POP SWAP2 SWAP1 POP JUMP JUMPDEST PUSH1 0x0 PUSH1 0x20 DUP3 ADD SWAP1 POP PUSH2 0x5F3 PUSH1 0x0 DUP4 ADD DUP5 PUSH2 0x55D JUMP JUMPDEST SWAP3 SWAP2 POP POP JUMP JUMPDEST PUSH1 0x0 DUP2 MLOAD SWAP1 POP SWAP2 SWAP1 POP JUMP JUMPDEST PUSH1 0x0 DUP2 SWAP1 POP SWAP3 SWAP2 POP POP JUMP JUMPDEST PUSH1 0x0 DUP3 DUP3 MSTORE PUSH1 0x20 DUP3 ADD SWAP1 POP SWAP3 SWAP2 POP POP JUMP JUMPDEST PUSH1 0x0 PUSH2 0x62B DUP3 PUSH2 0x6A8 JUMP JUMPDEST SWAP2 POP PUSH2 0x636 DUP4 PUSH2 0x6A8 JUMP JUMPDEST SWAP3 POP DUP3 PUSH32 0xFFFFFFFFFFFFFFFFFFFFFFFFFFFFFFFFFFFFFFFFFFFFFFFFFFFFFFFFFFFFFFFF SUB DUP3 GT ISZERO PUSH2 0x66B JUMPI PUSH2 0x66A PUSH2 0x6E5 JUMP JUMPDEST JUMPDEST DUP3 DUP3 ADD SWAP1 POP SWAP3 SWAP2 POP POP JUMP JUMPDEST PUSH1 0x0 PUSH2 0x681 DUP3 PUSH2 0x688 JUMP JUMPDEST SWAP1 POP SWAP2 SWAP1 POP JUMP JUMPDEST PUSH1 0x0 PUSH20 0xFFFFFFFFFFFFFFFFFFFFFFFFFFFFFFFFFFFFFFFF DUP3 AND SWAP1 POP SWAP2 SWAP1 POP JUMP JUMPDEST PUSH1 0x0 DUP2 SWAP1 POP SWAP2 SWAP1 POP JUMP JUMPDEST PUSH1 0x0 JUMPDEST DUP4 DUP2 LT ISZERO PUSH2 0x6D0 JUMPI DUP1 DUP3 ADD MLOAD DUP2 DUP5 ADD MSTORE PUSH1 0x20 DUP2 ADD SWAP1 POP PUSH2 0x6B5 JUMP JUMPDEST DUP4 DUP2 GT ISZERO PUSH2 0x6DF JUMPI PUSH1 0x0 DUP5 DUP5 ADD MSTORE JUMPDEST POP POP POP POP JUMP JUMPDEST PUSH32 0x4E487B7100000000000000000000000000000000000000000000000000000000 PUSH1 0x0 MSTORE PUSH1 0x11 PUSH1 0x4 MSTORE PUSH1 0x24 PUSH1 0x0 REVERT JUMPDEST PUSH32 0x4E6F74206F776E65720000000000000000000000000000000000000000000000 PUSH1 0x0 DUP3 ADD MSTORE POP JUMP JUMPDEST PUSH32 0x455448207472616E73666572206661696C656400000000000000000000000000 PUSH1 0x0 DUP3 ADD MSTORE POP JUMP JUMPDEST PUSH2 0x76F DUP2 PUSH2 0x676 JUMP JUMPDEST DUP2 EQ PUSH2 0x77A JUMPI PUSH1 0x0 DUP1 REVERT JUMPDEST POP JUMP INVALID LOG2 PUSH5 0x6970667358 0x22 SLT KECCAK256 PUSH23 0x62C0A188257C1A3A2EA8B5E1447FE5B6B633AD54860A20 SUB PUSH28 0xC1508C0BD0F664736F6C634300080400330000000000000000000000 "},"methodIdentifiers":{"deposits(address)":"fc7e286d","myDeposited()":"adacda79","owner()":"8da5cb5b","withdraw()":"3ccfd60b","withdrawAll()":"853828b6"}}}}}