{
  "_format": "hh-sol-artifact-1",
  "contractName": "C",
  "sourceName": "contracts/contractCreate.sol",
  "abi": [
    {
      "inputs": [],
      "stateMutability": "nonpayable",
      "type": "constructor"
    },
    {
      "inputs": [],
      "name": "data",
      "outputs": [
        {
          "internalType": "uint256",
          "name": "",
          "type": "uint256"
        }
      ],
      "stateMutability": "view",
      "type": "function"
    }
  ],
  "bytecode": "0x608060405234801561001057600080fd5b5060b38061001f6000396000f3fe6080604052348015600f57600080fd5b506004361060285760003560e01c806373d4a13a14602d575b600080fd5b60336047565b604051603e9190605a565b60405180910390f35b60005481565b6054816073565b82525050565b6000602082019050606d6000830184604d565b92915050565b600081905091905056fea2646970667358221220c0e0e609b9df93742c5b64d33fb0e4c4e4fd6b523a21f4e0ae471306ba83f4fa64736f6c63430008040033",
  "linkReferences": {},
  "deployedLinkReferences": {}
}