{
  "_format": "hh-sol-artifact-1",
  "contractName": "CreateC",
  "sourceName": "contracts/contractCreate.sol",
  "abi": [
    {
      "inputs": [],
      "name": "createContract1",
      "outputs": [
        {
          "internalType": "address",
          "name": "",
          "type": "address"
        }
      ],
      "stateMutability": "nonpayable",
      "type": "function"
    },
    {
      "inputs": [
        {
          "internalType": "address",
          "name": "impl",
          "type": "address"
        }
      ],
      "name": "createContract2",
      "outputs": [
        {
          "internalType": "address",
          "name": "",
          "type": "address"
        }
      ],
      "stateMutability": "nonpayable",
      "type": "function"
    },
    {
      "inputs": [
        {
          "internalType": "uint256",
          "name": "_salt",
          "type": "uint256"
        }
      ],
      "name": "createContract3",
      "outputs": [
        {
          "internalType": "address",
          "name": "",
          "type": "address"
        }
      ],
      "stateMutability": "nonpayable",
      "type": "function"
    },
    {
      "inputs": [
        {
          "internalType": "uint256",
          "name": "_salt",
          "type": "uint256"
        }
      ],
      "name": "getAddress",
      "outputs": [
        {
          "internalType": "address",
          "name": "",
          "type": "address"
        }
      ],
      "stateMutability": "view",
      "type": "function"
    }
  ],
  "bytecode": "0x608060405234801561001057600080fd5b50610606806100206000396000f3fe608060405234801561001057600080fd5b506004361061004c5760003560e01c806329d6e07614610051578063b93f9b0a14610081578063c48215d2146100b1578063d4d7a0e9146100cf575b600080fd5b61006b600480360381019061006691906102e0565b6100ff565b60405161007891906103e3565b60405180910390f35b61009b60048036038101906100969190610309565b610111565b6040516100a891906103e3565b60405180910390f35b6100b96101a9565b6040516100c691906103e3565b60405180910390f35b6100e960048036038101906100e49190610309565b6101de565b6040516100f691906103e3565b60405180910390f35b600061010a82610240565b9050919050565b60008060405180602001610124906102aa565b6020820181038252601f19601f820116604052509050600060ff60f81b308560405160200161015391906103fe565b6040516020818303038152906040528051906020012084805190602001206040516020016101849493929190610395565b6040516020818303038152906040528051906020012090508060001c92505050919050565b6000806040516101b8906102aa565b604051809103906000f0801580156101d4573d6000803e3d6000fd5b5090508091505090565b600080826040516020016101f291906103fe565b60405160208183030381529060405280519060200120604051610214906102aa565b8190604051809103906000f5905080158015610234573d6000803e3d6000fd5b50905080915050919050565b6000808260601b90506040517f3d602d80600a3d3981f3363d3d373d3d3d363d7300000000000000000000000081528160148201527f5af43d82803e903d91602b57fd5bf3000000000000000000000000000000000060288201526037816000f092505050919050565b60d2806104ff83390190565b6000813590506102c5816104d0565b92915050565b6000813590506102da816104e7565b92915050565b6000602082840312156102f257600080fd5b6000610300848285016102b6565b91505092915050565b60006020828403121561031b57600080fd5b6000610329848285016102cb565b91505092915050565b61033b81610419565b82525050565b61035261034d82610419565b61048b565b82525050565b6103696103648261042b565b61049d565b82525050565b61038061037b82610457565b6104a7565b82525050565b61038f81610481565b82525050565b60006103a18287610358565b6001820191506103b18286610341565b6014820191506103c1828561036f565b6020820191506103d1828461036f565b60208201915081905095945050505050565b60006020820190506103f86000830184610332565b92915050565b60006020820190506104136000830184610386565b92915050565b600061042482610461565b9050919050565b60007fff0000000000000000000000000000000000000000000000000000000000000082169050919050565b6000819050919050565b600073ffffffffffffffffffffffffffffffffffffffff82169050919050565b6000819050919050565b6000610496826104b1565b9050919050565b6000819050919050565b6000819050919050565b60006104bc826104c3565b9050919050565b60008160601b9050919050565b6104d981610419565b81146104e457600080fd5b50565b6104f081610481565b81146104fb57600080fd5b5056fe608060405234801561001057600080fd5b5060b38061001f6000396000f3fe6080604052348015600f57600080fd5b506004361060285760003560e01c806373d4a13a14602d575b600080fd5b60336047565b604051603e9190605a565b60405180910390f35b60005481565b6054816073565b82525050565b6000602082019050606d6000830184604d565b92915050565b600081905091905056fea2646970667358221220c0e0e609b9df93742c5b64d33fb0e4c4e4fd6b523a21f4e0ae471306ba83f4fa64736f6c63430008040033a264697066735822122019cde0e7fe44cae61488495c7b69d0c6cc58363e10ae805ba9cf657887d7307a64736f6c63430008040033",
  "linkReferences": {},
  "deployedLinkReferences": {}
}