{
  "_format": "hh-sol-artifact-1",
  "contractName": "MappingExample",
  "sourceName": "contracts/testMapping.sol",
  "abi": [
    {
      "inputs": [
        {
          "internalType": "address",
          "name": "",
          "type": "address"
        }
      ],
      "name": "balances",
      "outputs": [
        {
          "internalType": "uint256",
          "name": "",
          "type": "uint256"
        }
      ],
      "stateMutability": "view",
      "type": "function"
    },
    {
      "inputs": [
        {
          "internalType": "address",
          "name": "key",
          "type": "address"
        }
      ],
      "name": "get",
      "outputs": [
        {
          "internalType": "uint256",
          "name": "",
          "type": "uint256"
        }
      ],
      "stateMutability": "view",
      "type": "function"
    },
    {
      "inputs": [
        {
          "internalType": "uint256",
          "name": "newBalance",
          "type": "uint256"
        }
      ],
      "name": "update",
      "outputs": [],
      "stateMutability": "nonpayable",
      "type": "function"
    }
  ],
  "bytecode": "0x608060405234801561001057600080fd5b506102ae806100206000396000f3fe608060405234801561001057600080fd5b50600436106100415760003560e01c806327e235e31461004657806382ab890a14610076578063c2bc2efc14610092575b600080fd5b610060600480360381019061005b9190610192565b6100c2565b60405161006d91906101f3565b60405180910390f35b610090600480360381019061008b91906101bb565b6100da565b005b6100ac60048036038101906100a79190610192565b610120565b6040516100b991906101f3565b60405180910390f35b60006020528060005260406000206000915090505481565b806000803373ffffffffffffffffffffffffffffffffffffffff1673ffffffffffffffffffffffffffffffffffffffff1681526020019081526020016000208190555050565b60008060008373ffffffffffffffffffffffffffffffffffffffff1673ffffffffffffffffffffffffffffffffffffffff168152602001908152602001600020549050919050565b6000813590506101778161024a565b92915050565b60008135905061018c81610261565b92915050565b6000602082840312156101a457600080fd5b60006101b284828501610168565b91505092915050565b6000602082840312156101cd57600080fd5b60006101db8482850161017d565b91505092915050565b6101ed81610240565b82525050565b600060208201905061020860008301846101e4565b92915050565b600061021982610220565b9050919050565b600073ffffffffffffffffffffffffffffffffffffffff82169050919050565b6000819050919050565b6102538161020e565b811461025e57600080fd5b50565b61026a81610240565b811461027557600080fd5b5056fea264697066735822122071c220b93c0c842549e129ed859df75764c05d1d1f56801ffa674127e6ee01e764736f6c63430008040033",
  "linkReferences": {},
  "deployedLinkReferences": {}
}