{
  "_format": "hh-sol-artifact-1",
  "contractName": "testAddr",
  "sourceName": "contracts/testAddr.sol",
  "abi": [
    {
      "inputs": [],
      "stateMutability": "payable",
      "type": "constructor"
    },
    {
      "inputs": [
        {
          "internalType": "address",
          "name": "addr",
          "type": "address"
        }
      ],
      "name": "balance",
      "outputs": [
        {
          "internalType": "uint256",
          "name": "",
          "type": "uint256"
        }
      ],
      "stateMutability": "view",
      "type": "function"
    },
    {
      "inputs": [
        {
          "internalType": "address payable",
          "name": "x",
          "type": "address"
        }
      ],
      "name": "testTrasfer",
      "outputs": [],
      "stateMutability": "nonpayable",
      "type": "function"
    }
  ],
  "bytecode": "0x608060405261027f806100136000396000f3fe608060405234801561001057600080fd5b50600436106100365760003560e01c8063bca93aa91461003b578063e3d670d714610057575b600080fd5b6100556004803603810190610050919061017a565b610087565b005b610071600480360381019061006c9190610151565b610106565b60405161007e91906101b2565b60405180910390f35b6000309050678ac7230489e800008173ffffffffffffffffffffffffffffffffffffffff163110610102578173ffffffffffffffffffffffffffffffffffffffff166108fc678ac7230489e800009081150290604051600060405180830381858888f19350505050158015610100573d6000803e3d6000fd5b505b5050565b60008173ffffffffffffffffffffffffffffffffffffffff16319050919050565b6000813590506101368161021b565b92915050565b60008135905061014b81610232565b92915050565b60006020828403121561016357600080fd5b600061017184828501610127565b91505092915050565b60006020828403121561018c57600080fd5b600061019a8482850161013c565b91505092915050565b6101ac81610211565b82525050565b60006020820190506101c760008301846101a3565b92915050565b60006101d8826101f1565b9050919050565b60006101ea826101f1565b9050919050565b600073ffffffffffffffffffffffffffffffffffffffff82169050919050565b6000819050919050565b610224816101cd565b811461022f57600080fd5b50565b61023b816101df565b811461024657600080fd5b5056fea264697066735822122054ae6b89838cda418d58afe8c972ff215146327a6526dea4d96f99260942deac64736f6c63430008040033",
  "linkReferences": {},
  "deployedLinkReferences": {}
}